{
  "address": "0x2875b6bb190c43505d46643efE5E89d14B2F9059",
  "abi": [
    {
      "inputs": [],
      "stateMutability": "nonpayable",
      "type": "constructor"
    },
    {
      "inputs": [],
      "name": "ECDSAInvalidSignature",
      "type": "error"
    },
    {
      "inputs": [
        {
          "internalType": "uint256",
          "name": "length",
          "type": "uint256"
        }
      ],
      "name": "ECDSAInvalidSignatureLength",
      "type": "error"
    },
    {
      "inputs": [
        {
          "internalType": "bytes32",
          "name": "s",
          "type": "bytes32"
        }
      ],
      "name": "ECDSAInvalidSignatureS",
      "type": "error"
    },
    {
      "inputs": [],
      "name": "InvalidShortString",
      "type": "error"
    },
    {
      "inputs": [
        {
          "internalType": "string",
          "name": "str",
          "type": "string"
        }
      ],
      "name": "StringTooLong",
      "type": "error"
    },
    {
      "anonymous": false,
      "inputs": [],
      "name": "EIP712DomainChanged",
      "type": "event"
    },
    {
      "inputs": [
        {
          "internalType": "address",
          "name": "",
          "type": "address"
        },
        {
          "internalType": "uint256",
          "name": "",
          "type": "uint256"
        }
      ],
      "name": "cancelledOrFilledSalts",
      "outputs": [
        {
          "internalType": "bool",
          "name": "",
          "type": "bool"
        }
      ],
      "stateMutability": "view",
      "type": "function"
    },
    {
      "inputs": [],
      "name": "eip712Domain",
      "outputs": [
        {
          "internalType": "bytes1",
          "name": "fields",
          "type": "bytes1"
        },
        {
          "internalType": "string",
          "name": "name",
          "type": "string"
        },
        {
          "internalType": "string",
          "name": "version",
          "type": "string"
        },
        {
          "internalType": "uint256",
          "name": "chainId",
          "type": "uint256"
        },
        {
          "internalType": "address",
          "name": "verifyingContract",
          "type": "address"
        },
        {
          "internalType": "bytes32",
          "name": "salt",
          "type": "bytes32"
        },
        {
          "internalType": "uint256[]",
          "name": "extensions",
          "type": "uint256[]"
        }
      ],
      "stateMutability": "view",
      "type": "function"
    },
    {
      "inputs": [
        {
          "components": [
            {
              "internalType": "address",
              "name": "maker",
              "type": "address"
            },
            {
              "internalType": "uint256",
              "name": "volume",
              "type": "uint256"
            },
            {
              "internalType": "uint256",
              "name": "price",
              "type": "uint256"
            },
            {
              "internalType": "uint256",
              "name": "timeslot",
              "type": "uint256"
            },
            {
              "internalType": "uint256",
              "name": "salt",
              "type": "uint256"
            },
            {
              "internalType": "uint256",
              "name": "expiry",
              "type": "uint256"
            }
          ],
          "internalType": "struct LibElectricityOrder.Order",
          "name": "order",
          "type": "tuple"
        },
        {
          "internalType": "bytes",
          "name": "signature",
          "type": "bytes"
        }
      ],
      "name": "settleTrade",
      "outputs": [],
      "stateMutability": "nonpayable",
      "type": "function"
    },
    {
      "inputs": [
        {
          "components": [
            {
              "internalType": "address",
              "name": "maker",
              "type": "address"
            },
            {
              "internalType": "uint256",
              "name": "volume",
              "type": "uint256"
            },
            {
              "internalType": "uint256",
              "name": "price",
              "type": "uint256"
            },
            {
              "internalType": "uint256",
              "name": "timeslot",
              "type": "uint256"
            },
            {
              "internalType": "uint256",
              "name": "salt",
              "type": "uint256"
            },
            {
              "internalType": "uint256",
              "name": "expiry",
              "type": "uint256"
            }
          ],
          "internalType": "struct LibElectricityOrder.Order",
          "name": "order",
          "type": "tuple"
        },
        {
          "internalType": "bytes",
          "name": "signature",
          "type": "bytes"
        }
      ],
      "name": "validateOrderSignature",
      "outputs": [
        {
          "internalType": "bool",
          "name": "",
          "type": "bool"
        },
        {
          "internalType": "address",
          "name": "",
          "type": "address"
        }
      ],
      "stateMutability": "view",
      "type": "function"
    }
  ],
  "transactionHash": "0x8b4e66b5ad8c8c4691f85148721ea0ba8312e1ab1eafb4e45cb0166cae94e344",
  "args": [],
  "numDeployments": 1,
  "solcInputHash": "d8af05bcecc6ef90afdef77e4044980c",
  "bytecode": "0x61016060405234801561001157600080fd5b50604080518082018252600c81526b115b995c99de53585c9ad95d60a21b602080830191909152825180840190935260058352640312e302e360dc1b908301529061005d826000610107565b6101205261006c816001610107565b61014052815160208084019190912060e052815190820120610100524660a0526100f960e05161010051604080517f8b73c3c69bb8fe3d512ecc4cf759cc79239f7b179b0ffacaa9a75d522b39400f60208201529081019290925260608201524660808201523060a082015260009060c00160405160208183030381529060405280519060200120905090565b60805250503060c052610350565b60006020835110156101235761011c8361013a565b9050610134565b8161012e8482610220565b5060ff90505b92915050565b600080829050601f8151111561016e578260405163305a27a960e01b815260040161016591906102de565b60405180910390fd5b80516101798261032c565b179392505050565b634e487b7160e01b600052604160045260246000fd5b600181811c908216806101ab57607f821691505b6020821081036101cb57634e487b7160e01b600052602260045260246000fd5b50919050565b601f82111561021b57806000526020600020601f840160051c810160208510156101f85750805b601f840160051c820191505b818110156102185760008155600101610204565b50505b505050565b81516001600160401b0381111561023957610239610181565b61024d816102478454610197565b846101d1565b6020601f82116001811461028157600083156102695750848201515b600019600385901b1c1916600184901b178455610218565b600084815260208120601f198516915b828110156102b15787850151825560209485019460019092019101610291565b50848210156102cf5786840151600019600387901b60f8161c191681555b50505050600190811b01905550565b602081526000825180602084015260005b8181101561030c57602081860181015160408684010152016102ef565b506000604082850101526040601f19601f83011684010191505092915050565b805160208083015191908110156101cb5760001960209190910360031b1b16919050565b60805160a05160c05160e051610100516101205161014051610bdb6103aa60003960006104b501526000610483015260006105b50152600061058d015260006104e8015260006105120152600061053c0152610bdb6000f3fe608060405234801561001057600080fd5b506004361061004c5760003560e01c8063137d34b41461005157806324cd71e61461008857806384b0196e1461009d57806394e82f4f146100b8575b600080fd5b61006461005f3660046108f1565b6100f6565b6040805192151583526001600160a01b039091166020830152015b60405180910390f35b61009b6100963660046108f1565b61027e565b005b6100a5610331565b60405161007f97969594939291906109c4565b6100e66100c6366004610a78565b600260209081526000928352604080842090915290825290205460ff1681565b604051901515815260200161007f565b6000808460a001354211156101525760405162461bcd60e51b815260206004820152601f60248201527f456e657267794d61726b65743a204f726465722068617320657870697265640060448201526064015b60405180910390fd5b600260006101636020880188610aa2565b6001600160a01b03168152602080820192909252604090810160009081206080890135825290925290205460ff16156101e95760405162461bcd60e51b815260206004820152602260248201527f456e657267794d61726b65743a204f7264657220616c72656164792066696c6c604482015261195960f21b6064820152608401610149565b60006102026101fd36889003880188610ac4565b610377565b9050600061020f8261041f565b905060006102538288888080601f01602080910402602001604051908101604052809392919081815260200183838082843760009201919091525061045292505050565b90506102626020890189610aa2565b6001600160a01b03828116911614945092505050935093915050565b600061028b8484846100f6565b509050806102db5760405162461bcd60e51b815260206004820152601f60248201527f456e657267794d61726b65743a20496e76616c6964207369676e6174757265006044820152606401610149565b6001600260006102ee6020880188610aa2565b6001600160a01b031681526020808201929092526040908101600090812060809890980135815296909152909420805460ff191694151594909417909355505050565b60006060806000806000606061034561047c565b61034d6104ae565b60408051600080825260208201909252600f60f81b9b939a50919850469750309650945092509050565b60007f8a64c3fd947afaa659bad58a7f5244182cc988ca9f26e1c13eeade6211148387826000015183602001518460400151856060015186608001518760a0015160405160200161040297969594939291909687526001600160a01b0395909516602087015260408601939093526060850191909152608084015260a083015260c082015260e00190565b604051602081830303815290604052805190602001209050919050565b600061044c61042c6104db565b8360405161190160f01b8152600281019290925260228201526042902090565b92915050565b6000806000806104628686610606565b9250925092506104728282610653565b5090949350505050565b60606104a97f00000000000000000000000000000000000000000000000000000000000000006000610710565b905090565b60606104a97f00000000000000000000000000000000000000000000000000000000000000006001610710565b6000306001600160a01b037f00000000000000000000000000000000000000000000000000000000000000001614801561053457507f000000000000000000000000000000000000000000000000000000000000000046145b1561055e57507f000000000000000000000000000000000000000000000000000000000000000090565b6104a9604080517f8b73c3c69bb8fe3d512ecc4cf759cc79239f7b179b0ffacaa9a75d522b39400f60208201527f0000000000000000000000000000000000000000000000000000000000000000918101919091527f000000000000000000000000000000000000000000000000000000000000000060608201524660808201523060a082015260009060c00160405160208183030381529060405280519060200120905090565b600080600083516041036106405760208401516040850151606086015160001a610632888285856107bb565b95509550955050505061064c565b50508151600091506002905b9250925092565b600082600381111561066757610667610b55565b03610670575050565b600182600381111561068457610684610b55565b036106a25760405163f645eedf60e01b815260040160405180910390fd5b60028260038111156106b6576106b6610b55565b036106d75760405163fce698f760e01b815260048101829052602401610149565b60038260038111156106eb576106eb610b55565b0361070c576040516335e2f38360e21b815260048101829052602401610149565b5050565b606060ff831461072a576107238361088a565b905061044c565b81805461073690610b6b565b80601f016020809104026020016040519081016040528092919081815260200182805461076290610b6b565b80156107af5780601f10610784576101008083540402835291602001916107af565b820191906000526020600020905b81548152906001019060200180831161079257829003601f168201915b5050505050905061044c565b600080807f7fffffffffffffffffffffffffffffff5d576e7357a4501ddfe92f46681b20a08411156107f65750600091506003905082610880565b604080516000808252602082018084528a905260ff891692820192909252606081018790526080810186905260019060a0016020604051602081039080840390855afa15801561084a573d6000803e3d6000fd5b5050604051601f1901519150506001600160a01b03811661087657506000925060019150829050610880565b9250600091508190505b9450945094915050565b60606000610897836108c9565b604080516020808252818301909252919250600091906020820181803683375050509182525060208101929092525090565b600060ff8216601f81111561044c57604051632cd44ac360e21b815260040160405180910390fd5b600080600083850360e081121561090757600080fd5b60c081121561091557600080fd5b5083925060c084013567ffffffffffffffff81111561093357600080fd5b8401601f8101861361094457600080fd5b803567ffffffffffffffff81111561095b57600080fd5b86602082840101111561096d57600080fd5b939660209190910195509293505050565b6000815180845260005b818110156109a457602081850181015186830182015201610988565b506000602082860101526020601f19601f83011685010191505092915050565b60ff60f81b8816815260e0602082015260006109e360e083018961097e565b82810360408401526109f5818961097e565b606084018890526001600160a01b038716608085015260a0840186905283810360c08501528451808252602080870193509091019060005b81811015610a4b578351835260209384019390920191600101610a2d565b50909b9a5050505050505050505050565b80356001600160a01b0381168114610a7357600080fd5b919050565b60008060408385031215610a8b57600080fd5b610a9483610a5c565b946020939093013593505050565b600060208284031215610ab457600080fd5b610abd82610a5c565b9392505050565b600060c0828403128015610ad757600080fd5b6000905060405160c0810181811067ffffffffffffffff82111715610b0a57634e487b7160e01b83526041600452602483fd5b604052610b1684610a5c565b81526020848101359082015260408085013590820152606080850135908201526080808501359082015260a09384013593810193909352509092915050565b634e487b7160e01b600052602160045260246000fd5b600181811c90821680610b7f57607f821691505b602082108103610b9f57634e487b7160e01b600052602260045260246000fd5b5091905056fea2646970667358221220f866fc285d541682257ae7493a5ac805ec17abeb23a92f4f66cbac64d036252764736f6c634300081e0033",
  "devdoc": {
    "details": "核心结算与验签合约",
    "errors": {
      "ECDSAInvalidSignature()": [
        {
          "details": "The signature derives the `address(0)`."
        }
      ],
      "ECDSAInvalidSignatureLength(uint256)": [
        {
          "details": "The signature has an invalid length."
        }
      ],
      "ECDSAInvalidSignatureS(bytes32)": [
        {
          "details": "The signature has an S value that is in the upper half order."
        }
      ]
    },
    "events": {
      "EIP712DomainChanged()": {
        "details": "MAY be emitted to signal that the domain could have changed."
      }
    },
    "kind": "dev",
    "methods": {
      "eip712Domain()": {
        "details": "See {IERC-5267}."
      },
      "settleTrade((address,uint256,uint256,uint256,uint256,uint256),bytes)": {
        "details": "模拟结算接口 (后续 Sprint 中我们会加入 ERC20 转账和动态电网费逻辑)"
      },
      "validateOrderSignature((address,uint256,uint256,uint256,uint256,uint256),bytes)": {
        "details": "核心验签函数：验证链下 ADMM 协商后的订单签名是否有效"
      }
    },
    "title": "EnergyMarket",
    "version": 1
  },
  "userdoc": {
    "kind": "user",
    "methods": {},
    "version": 1
  },
  "storageLayout": {
    "storage": [
      {
        "astId": 991,
        "contract": "contracts/EnergyMarket.sol:EnergyMarket",
        "label": "_nameFallback",
        "offset": 0,
        "slot": "0",
        "type": "t_string_storage"
      },
      {
        "astId": 993,
        "contract": "contracts/EnergyMarket.sol:EnergyMarket",
        "label": "_versionFallback",
        "offset": 0,
        "slot": "1",
        "type": "t_string_storage"
      },
      {
        "astId": 2478,
        "contract": "contracts/EnergyMarket.sol:EnergyMarket",
        "label": "cancelledOrFilledSalts",
        "offset": 0,
        "slot": "2",
        "type": "t_mapping(t_address,t_mapping(t_uint256,t_bool))"
      }
    ],
    "types": {
      "t_address": {
        "encoding": "inplace",
        "label": "address",
        "numberOfBytes": "20"
      },
      "t_bool": {
        "encoding": "inplace",
        "label": "bool",
        "numberOfBytes": "1"
      },
      "t_mapping(t_address,t_mapping(t_uint256,t_bool))": {
        "encoding": "mapping",
        "key": "t_address",
        "label": "mapping(address => mapping(uint256 => bool))",
        "numberOfBytes": "32",
        "value": "t_mapping(t_uint256,t_bool)"
      },
      "t_mapping(t_uint256,t_bool)": {
        "encoding": "mapping",
        "key": "t_uint256",
        "label": "mapping(uint256 => bool)",
        "numberOfBytes": "32",
        "value": "t_bool"
      },
      "t_string_storage": {
        "encoding": "bytes",
        "label": "string",
        "numberOfBytes": "32"
      },
      "t_uint256": {
        "encoding": "inplace",
        "label": "uint256",
        "numberOfBytes": "32"
      }
    }
  }
}